{
  "_format": "hh-sol-artifact-1",
  "contractName": "PropertyFactory",
  "sourceName": "contracts/PropertyFactory.sol",
  "abi": [
    {
      "inputs": [
        {
          "internalType": "string",
          "name": "name",
          "type": "string"
        },
        {
          "internalType": "string",
          "name": "symbol",
          "type": "string"
        },
        {
          "internalType": "uint256",
          "name": "_initialSupply",
          "type": "uint256"
        },
        {
          "internalType": "uint256",
          "name": "_limitedSupply",
          "type": "uint256"
        }
      ],
      "stateMutability": "nonpayable",
      "type": "constructor"
    },
    {
      "inputs": [
        {
          "internalType": "address",
          "name": "spender",
          "type": "address"
        },
        {
          "internalType": "uint256",
          "name": "allowance",
          "type": "uint256"
        },
        {
          "internalType": "uint256",
          "name": "needed",
          "type": "uint256"
        }
      ],
      "name": "ERC20InsufficientAllowance",
      "type": "error"
    },
    {
      "inputs": [
        {
          "internalType": "address",
          "name": "sender",
          "type": "address"
        },
        {
          "internalType": "uint256",
          "name": "balance",
          "type": "uint256"
        },
        {
          "internalType": "uint256",
          "name": "needed",
          "type": "uint256"
        }
      ],
      "name": "ERC20InsufficientBalance",
      "type": "error"
    },
    {
      "inputs": [
        {
          "internalType": "address",
          "name": "approver",
          "type": "address"
        }
      ],
      "name": "ERC20InvalidApprover",
      "type": "error"
    },
    {
      "inputs": [
        {
          "internalType": "address",
          "name": "receiver",
          "type": "address"
        }
      ],
      "name": "ERC20InvalidReceiver",
      "type": "error"
    },
    {
      "inputs": [
        {
          "internalType": "address",
          "name": "sender",
          "type": "address"
        }
      ],
      "name": "ERC20InvalidSender",
      "type": "error"
    },
    {
      "inputs": [
        {
          "internalType": "address",
          "name": "spender",
          "type": "address"
        }
      ],
      "name": "ERC20InvalidSpender",
      "type": "error"
    },
    {
      "anonymous": false,
      "inputs": [
        {
          "indexed": true,
          "internalType": "address",
          "name": "owner",
          "type": "address"
        },
        {
          "indexed": true,
          "internalType": "address",
          "name": "spender",
          "type": "address"
        },
        {
          "indexed": false,
          "internalType": "uint256",
          "name": "value",
          "type": "uint256"
        }
      ],
      "name": "Approval",
      "type": "event"
    },
    {
      "anonymous": false,
      "inputs": [
        {
          "indexed": true,
          "internalType": "address",
          "name": "from",
          "type": "address"
        },
        {
          "indexed": true,
          "internalType": "address",
          "name": "to",
          "type": "address"
        },
        {
          "indexed": false,
          "internalType": "uint256",
          "name": "value",
          "type": "uint256"
        }
      ],
      "name": "Transfer",
      "type": "event"
    },
    {
      "inputs": [
        {
          "internalType": "address",
          "name": "owner",
          "type": "address"
        },
        {
          "internalType": "address",
          "name": "spender",
          "type": "address"
        }
      ],
      "name": "allowance",
      "outputs": [
        {
          "internalType": "uint256",
          "name": "",
          "type": "uint256"
        }
      ],
      "stateMutability": "view",
      "type": "function"
    },
    {
      "inputs": [
        {
          "internalType": "address",
          "name": "spender",
          "type": "address"
        },
        {
          "internalType": "uint256",
          "name": "value",
          "type": "uint256"
        }
      ],
      "name": "approve",
      "outputs": [
        {
          "internalType": "bool",
          "name": "",
          "type": "bool"
        }
      ],
      "stateMutability": "nonpayable",
      "type": "function"
    },
    {
      "inputs": [
        {
          "internalType": "address",
          "name": "account",
          "type": "address"
        }
      ],
      "name": "balanceOf",
      "outputs": [
        {
          "internalType": "uint256",
          "name": "",
          "type": "uint256"
        }
      ],
      "stateMutability": "view",
      "type": "function"
    },
    {
      "inputs": [
        {
          "internalType": "uint256",
          "name": "value",
          "type": "uint256"
        }
      ],
      "name": "burn",
      "outputs": [],
      "stateMutability": "nonpayable",
      "type": "function"
    },
    {
      "inputs": [
        {
          "internalType": "address",
          "name": "account",
          "type": "address"
        },
        {
          "internalType": "uint256",
          "name": "value",
          "type": "uint256"
        }
      ],
      "name": "burnFrom",
      "outputs": [],
      "stateMutability": "nonpayable",
      "type": "function"
    },
    {
      "inputs": [
        {
          "internalType": "uint256",
          "name": "amount",
          "type": "uint256"
        }
      ],
      "name": "buyTokens",
      "outputs": [],
      "stateMutability": "nonpayable",
      "type": "function"
    },
    {
      "inputs": [],
      "name": "currentPrice",
      "outputs": [
        {
          "internalType": "uint256",
          "name": "",
          "type": "uint256"
        }
      ],
      "stateMutability": "view",
      "type": "function"
    },
    {
      "inputs": [],
      "name": "decimals",
      "outputs": [
        {
          "internalType": "uint8",
          "name": "",
          "type": "uint8"
        }
      ],
      "stateMutability": "view",
      "type": "function"
    },
    {
      "inputs": [],
      "name": "initialSupply",
      "outputs": [
        {
          "internalType": "uint256",
          "name": "",
          "type": "uint256"
        }
      ],
      "stateMutability": "view",
      "type": "function"
    },
    {
      "inputs": [],
      "name": "limitedSupply",
      "outputs": [
        {
          "internalType": "uint256",
          "name": "",
          "type": "uint256"
        }
      ],
      "stateMutability": "view",
      "type": "function"
    },
    {
      "inputs": [],
      "name": "name",
      "outputs": [
        {
          "internalType": "string",
          "name": "",
          "type": "string"
        }
      ],
      "stateMutability": "view",
      "type": "function"
    },
    {
      "inputs": [],
      "name": "owner",
      "outputs": [
        {
          "internalType": "address",
          "name": "",
          "type": "address"
        }
      ],
      "stateMutability": "view",
      "type": "function"
    },
    {
      "inputs": [],
      "name": "symbol",
      "outputs": [
        {
          "internalType": "string",
          "name": "",
          "type": "string"
        }
      ],
      "stateMutability": "view",
      "type": "function"
    },
    {
      "inputs": [],
      "name": "totalSupply",
      "outputs": [
        {
          "internalType": "uint256",
          "name": "",
          "type": "uint256"
        }
      ],
      "stateMutability": "view",
      "type": "function"
    },
    {
      "inputs": [
        {
          "internalType": "address",
          "name": "to",
          "type": "address"
        },
        {
          "internalType": "uint256",
          "name": "value",
          "type": "uint256"
        }
      ],
      "name": "transfer",
      "outputs": [
        {
          "internalType": "bool",
          "name": "",
          "type": "bool"
        }
      ],
      "stateMutability": "nonpayable",
      "type": "function"
    },
    {
      "inputs": [
        {
          "internalType": "address",
          "name": "from",
          "type": "address"
        },
        {
          "internalType": "address",
          "name": "to",
          "type": "address"
        },
        {
          "internalType": "uint256",
          "name": "value",
          "type": "uint256"
        }
      ],
      "name": "transferFrom",
      "outputs": [
        {
          "internalType": "bool",
          "name": "",
          "type": "bool"
        }
      ],
      "stateMutability": "nonpayable",
      "type": "function"
    },
    {
      "inputs": [
        {
          "internalType": "address",
          "name": "newOwner",
          "type": "address"
        }
      ],
      "name": "transferOwnership",
      "outputs": [],
      "stateMutability": "nonpayable",
      "type": "function"
    },
    {
      "inputs": [
        {
          "internalType": "uint256",
          "name": "_amount",
          "type": "uint256"
        }
      ],
      "name": "updatePrice",
      "outputs": [],
      "stateMutability": "nonpayable",
      "type": "function"
    },
    {
      "inputs": [],
      "name": "verified",
      "outputs": [
        {
          "internalType": "bool",
          "name": "",
          "type": "bool"
        }
      ],
      "stateMutability": "view",
      "type": "function"
    }
  ],
  "bytecode": "0x60806040523480156200001157600080fd5b5060405162000f3238038062000f328339810160408190526200003491620002c5565b83836003620000448382620003ce565b506004620000538282620003ce565b5050600580546001600160a01b0319163390811790915560068490556007839055620000819150836200008b565b50505050620004c2565b6001600160a01b038216620000bb5760405163ec442f0560e01b8152600060048201526024015b60405180910390fd5b620000c960008383620000cd565b5050565b6001600160a01b038316620000fc578060026000828254620000f091906200049a565b90915550620001709050565b6001600160a01b03831660009081526020819052604090205481811015620001515760405163391434e360e21b81526001600160a01b03851660048201526024810182905260448101839052606401620000b2565b6001600160a01b03841660009081526020819052604090209082900390555b6001600160a01b0382166200018e57600280548290039055620001ad565b6001600160a01b03821660009081526020819052604090208054820190555b816001600160a01b0316836001600160a01b03167fddf252ad1be2c89b69c2b068fc378daa952ba7f163c4a11628f55a4df523b3ef83604051620001f391815260200190565b60405180910390a3505050565b634e487b7160e01b600052604160045260246000fd5b600082601f8301126200022857600080fd5b81516001600160401b038082111562000245576200024562000200565b604051601f8301601f19908116603f0116810190828211818310171562000270576200027062000200565b816040528381526020925086838588010111156200028d57600080fd5b600091505b83821015620002b1578582018301518183018401529082019062000292565b600093810190920192909252949350505050565b60008060008060808587031215620002dc57600080fd5b84516001600160401b0380821115620002f457600080fd5b620003028883890162000216565b955060208701519150808211156200031957600080fd5b50620003288782880162000216565b604087015160609097015195989097509350505050565b600181811c908216806200035457607f821691505b6020821081036200037557634e487b7160e01b600052602260045260246000fd5b50919050565b601f821115620003c957600081815260208120601f850160051c81016020861015620003a45750805b601f850160051c820191505b81811015620003c557828155600101620003b0565b5050505b505050565b81516001600160401b03811115620003ea57620003ea62000200565b6200040281620003fb84546200033f565b846200037b565b602080601f8311600181146200043a5760008415620004215750858301515b600019600386901b1c1916600185901b178555620003c5565b600085815260208120601f198616915b828110156200046b578886015182559484019460019091019084016200044a565b50858210156200048a5787850151600019600388901b60f8161c191681555b5050505050600190811b01905550565b80820180821115620004bc57634e487b7160e01b600052601160045260246000fd5b92915050565b610a6080620004d26000396000f3fe608060405234801561001057600080fd5b50600436106101215760003560e01c806370a08231116100ad5780639d1b464a116100715780639d1b464a14610257578063a9059cbb14610260578063bbb82d8914610273578063dd62ed3e14610280578063f2fde38b146102b957600080fd5b806370a08231146101d557806379cc6790146101fe5780638d6cc56d146102115780638da5cb5b1461022457806395d89b411461024f57600080fd5b8063313ce567116100f4578063313ce5671461018c5780633610724e1461019b578063378dc3dc146101b057806342966c68146101b9578063618e54dc146101cc57600080fd5b806306fdde0314610126578063095ea7b31461014457806318160ddd1461016757806323b872dd14610179575b600080fd5b61012e6102cc565b60405161013b9190610891565b60405180910390f35b6101576101523660046108fb565b61035e565b604051901515815260200161013b565b6002545b60405190815260200161013b565b610157610187366004610925565b610378565b6040516012815260200161013b565b6101ae6101a9366004610961565b61039c565b005b61016b60065481565b6101ae6101c7366004610961565b61046d565b61016b60075481565b61016b6101e336600461097a565b6001600160a01b031660009081526020819052604090205490565b6101ae61020c3660046108fb565b610477565b6101ae61021f366004610961565b600955565b600554610237906001600160a01b031681565b6040516001600160a01b03909116815260200161013b565b61012e610490565b61016b60095481565b61015761026e3660046108fb565b61049f565b6008546101579060ff1681565b61016b61028e36600461099c565b6001600160a01b03918216600090815260016020908152604080832093909416825291909152205490565b6101ae6102c736600461097a565b6104ad565b6060600380546102db906109cf565b80601f0160208091040260200160405190810160405280929190818152602001828054610307906109cf565b80156103545780601f1061032957610100808354040283529160200191610354565b820191906000526020600020905b81548152906001019060200180831161033757829003601f168201915b5050505050905090565b60003361036c818585610537565b60019150505b92915050565b600033610386858285610549565b6103918585856105c7565b506001949350505050565b6005546001600160a01b031633036103fb5760405162461bcd60e51b815260206004820152601860248201527f4f776e65722063616e6e6f742062757920746f6b656e732e000000000000000060448201526064015b60405180910390fd5b6007548161040860025490565b6104129190610a09565b11156104605760405162461bcd60e51b815260206004820152601760248201527f45786365656473206c696d6974656420737570706c792e00000000000000000060448201526064016103f2565b61046a3382610626565b50565b61046a338261065c565b610482823383610549565b61048c828261065c565b5050565b6060600480546102db906109cf565b60003361036c8185856105c7565b6005546001600160a01b031633146105155760405162461bcd60e51b815260206004820152602560248201527f4f6e6c7920746865206f776e65722063616e207472616e73666572206f776e65604482015264072736869760dc1b60648201526084016103f2565b600580546001600160a01b0319166001600160a01b0392909216919091179055565b6105448383836001610692565b505050565b6001600160a01b0383811660009081526001602090815260408083209386168352929052205460001981146105c157818110156105b257604051637dc7a0d960e11b81526001600160a01b038416600482015260248101829052604481018390526064016103f2565b6105c184848484036000610692565b50505050565b6001600160a01b0383166105f157604051634b637e8f60e11b8152600060048201526024016103f2565b6001600160a01b03821661061b5760405163ec442f0560e01b8152600060048201526024016103f2565b610544838383610767565b6001600160a01b0382166106505760405163ec442f0560e01b8152600060048201526024016103f2565b61048c60008383610767565b6001600160a01b03821661068657604051634b637e8f60e11b8152600060048201526024016103f2565b61048c82600083610767565b6001600160a01b0384166106bc5760405163e602df0560e01b8152600060048201526024016103f2565b6001600160a01b0383166106e657604051634a1406b160e11b8152600060048201526024016103f2565b6001600160a01b03808516600090815260016020908152604080832093871683529290522082905580156105c157826001600160a01b0316846001600160a01b03167f8c5be1e5ebec7d5bd14f71427d1e84f3dd0314c0f7b2291e5b200ac8c7c3b9258460405161075991815260200190565b60405180910390a350505050565b6001600160a01b0383166107925780600260008282546107879190610a09565b909155506108049050565b6001600160a01b038316600090815260208190526040902054818110156107e55760405163391434e360e21b81526001600160a01b038516600482015260248101829052604481018390526064016103f2565b6001600160a01b03841660009081526020819052604090209082900390555b6001600160a01b0382166108205760028054829003905561083f565b6001600160a01b03821660009081526020819052604090208054820190555b816001600160a01b0316836001600160a01b03167fddf252ad1be2c89b69c2b068fc378daa952ba7f163c4a11628f55a4df523b3ef8360405161088491815260200190565b60405180910390a3505050565b600060208083528351808285015260005b818110156108be578581018301518582016040015282016108a2565b506000604082860101526040601f19601f8301168501019250505092915050565b80356001600160a01b03811681146108f657600080fd5b919050565b6000806040838503121561090e57600080fd5b610917836108df565b946020939093013593505050565b60008060006060848603121561093a57600080fd5b610943846108df565b9250610951602085016108df565b9150604084013590509250925092565b60006020828403121561097357600080fd5b5035919050565b60006020828403121561098c57600080fd5b610995826108df565b9392505050565b600080604083850312156109af57600080fd5b6109b8836108df565b91506109c6602084016108df565b90509250929050565b600181811c908216806109e357607f821691505b602082108103610a0357634e487b7160e01b600052602260045260246000fd5b50919050565b8082018082111561037257634e487b7160e01b600052601160045260246000fdfea2646970667358221220cdd7706d69f0168d714598bf2152275020aed062c0920933d2b6e452ca7a52b964736f6c63430008140033",
  "linkReferences": {},
  "deployedLinkReferences": {}
}