{
  "_format": "hh-sol-artifact-1",
  "contractName": "UserRegistry",
  "sourceName": "contracts/UserRegistry.sol",
  "abi": [
    {
      "inputs": [],
      "stateMutability": "nonpayable",
      "type": "constructor"
    },
    {
      "inputs": [
        {
          "internalType": "address",
          "name": "owner",
          "type": "address"
        }
      ],
      "name": "OwnableInvalidOwner",
      "type": "error"
    },
    {
      "inputs": [
        {
          "internalType": "address",
          "name": "account",
          "type": "address"
        }
      ],
      "name": "OwnableUnauthorizedAccount",
      "type": "error"
    },
    {
      "anonymous": false,
      "inputs": [
        {
          "indexed": true,
          "internalType": "address",
          "name": "previousOwner",
          "type": "address"
        },
        {
          "indexed": true,
          "internalType": "address",
          "name": "newOwner",
          "type": "address"
        }
      ],
      "name": "OwnershipTransferred",
      "type": "event"
    },
    {
      "anonymous": false,
      "inputs": [
        {
          "indexed": true,
          "internalType": "address",
          "name": "tokenAddress",
          "type": "address"
        },
        {
          "indexed": false,
          "internalType": "string",
          "name": "name",
          "type": "string"
        },
        {
          "indexed": false,
          "internalType": "string",
          "name": "symbol",
          "type": "string"
        },
        {
          "indexed": false,
          "internalType": "uint256",
          "name": "initialSupply",
          "type": "uint256"
        },
        {
          "indexed": false,
          "internalType": "uint256",
          "name": "limitedSupply",
          "type": "uint256"
        }
      ],
      "name": "PropertyAdded",
      "type": "event"
    },
    {
      "inputs": [
        {
          "internalType": "string",
          "name": "name",
          "type": "string"
        },
        {
          "internalType": "string",
          "name": "symbol",
          "type": "string"
        },
        {
          "internalType": "uint256",
          "name": "initialSupply",
          "type": "uint256"
        },
        {
          "internalType": "uint256",
          "name": "limitedSupply",
          "type": "uint256"
        }
      ],
      "name": "AddProperty",
      "outputs": [],
      "stateMutability": "nonpayable",
      "type": "function"
    },
    {
      "inputs": [
        {
          "internalType": "uint256",
          "name": "id",
          "type": "uint256"
        }
      ],
      "name": "VerifyProperty",
      "outputs": [],
      "stateMutability": "nonpayable",
      "type": "function"
    },
    {
      "inputs": [
        {
          "internalType": "string",
          "name": "URI",
          "type": "string"
        }
      ],
      "name": "addUserDetails",
      "outputs": [],
      "stateMutability": "nonpayable",
      "type": "function"
    },
    {
      "inputs": [],
      "name": "getSender",
      "outputs": [
        {
          "internalType": "address",
          "name": "",
          "type": "address"
        }
      ],
      "stateMutability": "view",
      "type": "function"
    },
    {
      "inputs": [
        {
          "internalType": "address",
          "name": "user",
          "type": "address"
        }
      ],
      "name": "getUserData",
      "outputs": [
        {
          "components": [
            {
              "internalType": "enum UserRegistry.KYCSTATUS",
              "name": "kycStatus",
              "type": "uint8"
            },
            {
              "components": [
                {
                  "internalType": "address",
                  "name": "contractAddress",
                  "type": "address"
                },
                {
                  "internalType": "bool",
                  "name": "verified",
                  "type": "bool"
                }
              ],
              "internalType": "struct UserRegistry.PropertyMetaDataStruct[]",
              "name": "personalProperties",
              "type": "tuple[]"
            }
          ],
          "internalType": "struct UserRegistry.UserData",
          "name": "",
          "type": "tuple"
        }
      ],
      "stateMutability": "view",
      "type": "function"
    },
    {
      "inputs": [],
      "name": "owner",
      "outputs": [
        {
          "internalType": "address",
          "name": "",
          "type": "address"
        }
      ],
      "stateMutability": "view",
      "type": "function"
    },
    {
      "inputs": [
        {
          "internalType": "uint256",
          "name": "",
          "type": "uint256"
        }
      ],
      "name": "properties",
      "outputs": [
        {
          "internalType": "address",
          "name": "contractAddress",
          "type": "address"
        },
        {
          "internalType": "bool",
          "name": "verified",
          "type": "bool"
        }
      ],
      "stateMutability": "view",
      "type": "function"
    },
    {
      "inputs": [],
      "name": "renounceOwnership",
      "outputs": [],
      "stateMutability": "nonpayable",
      "type": "function"
    },
    {
      "inputs": [
        {
          "internalType": "address",
          "name": "newOwner",
          "type": "address"
        }
      ],
      "name": "transferOwnership",
      "outputs": [],
      "stateMutability": "nonpayable",
      "type": "function"
    },
    {
      "inputs": [
        {
          "internalType": "address",
          "name": "user",
          "type": "address"
        }
      ],
      "name": "verifyUser",
      "outputs": [],
      "stateMutability": "nonpayable",
      "type": "function"
    }
  ],
  "bytecode": "0x608060405234801561001057600080fd5b50338061003757604051631e4fbdf760e01b81526000600482015260240160405180910390fd5b61004081610046565b50610096565b600080546001600160a01b038381166001600160a01b0319831681178455604051919092169283917f8be0079c531659141344cd1fd0a4f28419497f9722a3daafe3b4186f6b6457e09190a35050565b611b7b806100a56000396000f3fe60806040523480156200001157600080fd5b5060043610620000ab5760003560e01c80638da5cb5b116200006e5780638da5cb5b1462000120578063ced5a9471462000132578063f2fde38b1462000149578063f7b108081462000160578063ffc9896b146200019757600080fd5b80634d81312014620000b05780635e01eb5a14620000c95780636533f73f14620000e8578063715018a614620000ff57806377feaef11462000109575b600080fd5b620000c7620000c136600462000816565b620001bd565b005b335b6040516001600160a01b0390911681526020015b60405180910390f35b620000c7620000f936600462000894565b62000258565b620000c76200042c565b620000c76200011a36600462000919565b62000444565b6000546001600160a01b0316620000cb565b620000c7620001433660046200095f565b62000549565b620000c76200015a36600462000816565b620005a5565b62000177620001713660046200095f565b620005e9565b604080516001600160a01b039093168352901515602083015201620000df565b620001ae620001a836600462000816565b6200061f565b604051620000df91906200098f565b620001c762000789565b60023360009081526001602052604090205460ff166003811115620001f057620001f062000979565b14620002345760405162461bcd60e51b815260206004820152600e60248201526d021b0b713ba103b32b934b33c97160951b60448201526064015b60405180910390fd5b6001600160a01b03166000908152600160205260409020805460ff19166003179055565b80821115620002d2576040805162461bcd60e51b81526020600482015260248101919091527f496e697469616c20737570706c79206d757374206265206c657373207468616e60448201527f206f7220657175616c20746f20746865206c696d6974656420737570706c792e60648201526084016200022b565b6000868686868686604051620002e89062000808565b620002f99695949392919062000a4a565b604051809103906000f08015801562000316573d6000803e3d6000fd5b5060405163f2fde38b60e01b81523360048201529091506001600160a01b0382169063f2fde38b90602401600060405180830381600087803b1580156200035c57600080fd5b505af115801562000371573d6000803e3d6000fd5b5050336000908152600160208181526040808420815180830183526001600160a01b0389811680835282860188815260029094018054978801815588529490962090519401805491511515600160a01b026001600160a81b0319909216949095169390931792909217909255519092507ff771672411519673b1be7d22f97e7cccb711553c0a754ef3e24d781d4678338991506200041b908a908a908a908a908a908a9062000a4a565b60405180910390a250505050505050565b6200043662000789565b620004426000620007b8565b565b60023360009081526001602052604090205460ff1660038111156200046d576200046d62000979565b03620004ae5760405162461bcd60e51b815260206004820152600f60248201526e105b1c9958591e48105c1c1b1a5959608a1b60448201526064016200022b565b60033360009081526001602052604090205460ff166003811115620004d757620004d762000979565b03620005195760405162461bcd60e51b815260206004820152601060248201526f105b1c9958591e4815995c9a599a595960821b60448201526064016200022b565b336000908152600160208190526040909120805460ff19166002178155016200054482848362000b2f565b505050565b6200055362000789565b3360009081526001602081905260409091206002018054839081106200057d576200057d62000bfd565b60009182526020909120018054911515600160a01b0260ff60a01b1990921691909117905550565b620005af62000789565b6001600160a01b038116620005db57604051631e4fbdf760e01b8152600060048201526024016200022b565b620005e681620007b8565b50565b60028181548110620005fa57600080fd5b6000918252602090912001546001600160a01b0381169150600160a01b900460ff1682565b604080518082019091526000815260606020820152336001600160a01b038316146200069f5760405162461bcd60e51b815260206004820152602860248201527f4f6e6c7920746865206f776e6572206f662074686520646174612063616e206160448201526718d8d95cdcc81a5d60c21b60648201526084016200022b565b6001600160a01b0382166000908152600160205260409020620006d360408051808201909152600081526060602082015290565b8154819060ff166003811115620006ee57620006ee62000979565b9081600381111562000704576200070462000979565b8152505081600201805480602002602001604051908101604052809291908181526020016000905b828210156200077957600084815260209081902060408051808201909152908401546001600160a01b0381168252600160a01b900460ff161515818301528252600190920191016200072c565b5050505060208201529392505050565b6000546001600160a01b03163314620004425760405163118cdaa760e01b81523360048201526024016200022b565b600080546001600160a01b038381166001600160a01b0319831681178455604051919092169283917f8be0079c531659141344cd1fd0a4f28419497f9722a3daafe3b4186f6b6457e09190a35050565b610f328062000c1483390190565b6000602082840312156200082957600080fd5b81356001600160a01b03811681146200084157600080fd5b9392505050565b60008083601f8401126200085b57600080fd5b50813567ffffffffffffffff8111156200087457600080fd5b6020830191508360208285010111156200088d57600080fd5b9250929050565b60008060008060008060808789031215620008ae57600080fd5b863567ffffffffffffffff80821115620008c757600080fd5b620008d58a838b0162000848565b90985096506020890135915080821115620008ef57600080fd5b50620008fe89828a0162000848565b979a9699509760408101359660609091013595509350505050565b600080602083850312156200092d57600080fd5b823567ffffffffffffffff8111156200094557600080fd5b620009538582860162000848565b90969095509350505050565b6000602082840312156200097257600080fd5b5035919050565b634e487b7160e01b600052602160045260246000fd5b6000602080835260608301845160048110620009bb57634e487b7160e01b600052602160045260246000fd5b84830152848201516040808601819052815192839052908301916000919060808701905b8084101562000a1557845180516001600160a01b03168352860151151586830152938501936001939093019290820190620009df565b50979650505050505050565b81835281816020850137506000828201602090810191909152601f909101601f19169091010190565b60808152600062000a6060808301888a62000a21565b828103602084015262000a7581878962000a21565b6040840195909552505060600152949350505050565b634e487b7160e01b600052604160045260246000fd5b600181811c9082168062000ab657607f821691505b60208210810362000ad757634e487b7160e01b600052602260045260246000fd5b50919050565b601f8211156200054457600081815260208120601f850160051c8101602086101562000b065750805b601f850160051c820191505b8181101562000b275782815560010162000b12565b505050505050565b67ffffffffffffffff83111562000b4a5762000b4a62000a8b565b62000b628362000b5b835462000aa1565b8362000add565b6000601f84116001811462000b99576000851562000b805750838201355b600019600387901b1c1916600186901b17835562000bf6565b600083815260209020601f19861690835b8281101562000bcc578685013582556020948501946001909201910162000baa565b508682101562000bea5760001960f88860031b161c19848701351681555b505060018560011b0183555b5050505050565b634e487b7160e01b600052603260045260246000fdfe60806040523480156200001157600080fd5b5060405162000f3238038062000f328339810160408190526200003491620002c5565b83836003620000448382620003ce565b506004620000538282620003ce565b5050600580546001600160a01b0319163390811790915560068490556007839055620000819150836200008b565b50505050620004c2565b6001600160a01b038216620000bb5760405163ec442f0560e01b8152600060048201526024015b60405180910390fd5b620000c960008383620000cd565b5050565b6001600160a01b038316620000fc578060026000828254620000f091906200049a565b90915550620001709050565b6001600160a01b03831660009081526020819052604090205481811015620001515760405163391434e360e21b81526001600160a01b03851660048201526024810182905260448101839052606401620000b2565b6001600160a01b03841660009081526020819052604090209082900390555b6001600160a01b0382166200018e57600280548290039055620001ad565b6001600160a01b03821660009081526020819052604090208054820190555b816001600160a01b0316836001600160a01b03167fddf252ad1be2c89b69c2b068fc378daa952ba7f163c4a11628f55a4df523b3ef83604051620001f391815260200190565b60405180910390a3505050565b634e487b7160e01b600052604160045260246000fd5b600082601f8301126200022857600080fd5b81516001600160401b038082111562000245576200024562000200565b604051601f8301601f19908116603f0116810190828211818310171562000270576200027062000200565b816040528381526020925086838588010111156200028d57600080fd5b600091505b83821015620002b1578582018301518183018401529082019062000292565b600093810190920192909252949350505050565b60008060008060808587031215620002dc57600080fd5b84516001600160401b0380821115620002f457600080fd5b620003028883890162000216565b955060208701519150808211156200031957600080fd5b50620003288782880162000216565b604087015160609097015195989097509350505050565b600181811c908216806200035457607f821691505b6020821081036200037557634e487b7160e01b600052602260045260246000fd5b50919050565b601f821115620003c957600081815260208120601f850160051c81016020861015620003a45750805b601f850160051c820191505b81811015620003c557828155600101620003b0565b5050505b505050565b81516001600160401b03811115620003ea57620003ea62000200565b6200040281620003fb84546200033f565b846200037b565b602080601f8311600181146200043a5760008415620004215750858301515b600019600386901b1c1916600185901b178555620003c5565b600085815260208120601f198616915b828110156200046b578886015182559484019460019091019084016200044a565b50858210156200048a5787850151600019600388901b60f8161c191681555b5050505050600190811b01905550565b80820180821115620004bc57634e487b7160e01b600052601160045260246000fd5b92915050565b610a6080620004d26000396000f3fe608060405234801561001057600080fd5b50600436106101215760003560e01c806370a08231116100ad5780639d1b464a116100715780639d1b464a14610257578063a9059cbb14610260578063bbb82d8914610273578063dd62ed3e14610280578063f2fde38b146102b957600080fd5b806370a08231146101d557806379cc6790146101fe5780638d6cc56d146102115780638da5cb5b1461022457806395d89b411461024f57600080fd5b8063313ce567116100f4578063313ce5671461018c5780633610724e1461019b578063378dc3dc146101b057806342966c68146101b9578063618e54dc146101cc57600080fd5b806306fdde0314610126578063095ea7b31461014457806318160ddd1461016757806323b872dd14610179575b600080fd5b61012e6102cc565b60405161013b9190610891565b60405180910390f35b6101576101523660046108fb565b61035e565b604051901515815260200161013b565b6002545b60405190815260200161013b565b610157610187366004610925565b610378565b6040516012815260200161013b565b6101ae6101a9366004610961565b61039c565b005b61016b60065481565b6101ae6101c7366004610961565b61046d565b61016b60075481565b61016b6101e336600461097a565b6001600160a01b031660009081526020819052604090205490565b6101ae61020c3660046108fb565b610477565b6101ae61021f366004610961565b600955565b600554610237906001600160a01b031681565b6040516001600160a01b03909116815260200161013b565b61012e610490565b61016b60095481565b61015761026e3660046108fb565b61049f565b6008546101579060ff1681565b61016b61028e36600461099c565b6001600160a01b03918216600090815260016020908152604080832093909416825291909152205490565b6101ae6102c736600461097a565b6104ad565b6060600380546102db906109cf565b80601f0160208091040260200160405190810160405280929190818152602001828054610307906109cf565b80156103545780601f1061032957610100808354040283529160200191610354565b820191906000526020600020905b81548152906001019060200180831161033757829003601f168201915b5050505050905090565b60003361036c818585610537565b60019150505b92915050565b600033610386858285610549565b6103918585856105c7565b506001949350505050565b6005546001600160a01b031633036103fb5760405162461bcd60e51b815260206004820152601860248201527f4f776e65722063616e6e6f742062757920746f6b656e732e000000000000000060448201526064015b60405180910390fd5b6007548161040860025490565b6104129190610a09565b11156104605760405162461bcd60e51b815260206004820152601760248201527f45786365656473206c696d6974656420737570706c792e00000000000000000060448201526064016103f2565b61046a3382610626565b50565b61046a338261065c565b610482823383610549565b61048c828261065c565b5050565b6060600480546102db906109cf565b60003361036c8185856105c7565b6005546001600160a01b031633146105155760405162461bcd60e51b815260206004820152602560248201527f4f6e6c7920746865206f776e65722063616e207472616e73666572206f776e65604482015264072736869760dc1b60648201526084016103f2565b600580546001600160a01b0319166001600160a01b0392909216919091179055565b6105448383836001610692565b505050565b6001600160a01b0383811660009081526001602090815260408083209386168352929052205460001981146105c157818110156105b257604051637dc7a0d960e11b81526001600160a01b038416600482015260248101829052604481018390526064016103f2565b6105c184848484036000610692565b50505050565b6001600160a01b0383166105f157604051634b637e8f60e11b8152600060048201526024016103f2565b6001600160a01b03821661061b5760405163ec442f0560e01b8152600060048201526024016103f2565b610544838383610767565b6001600160a01b0382166106505760405163ec442f0560e01b8152600060048201526024016103f2565b61048c60008383610767565b6001600160a01b03821661068657604051634b637e8f60e11b8152600060048201526024016103f2565b61048c82600083610767565b6001600160a01b0384166106bc5760405163e602df0560e01b8152600060048201526024016103f2565b6001600160a01b0383166106e657604051634a1406b160e11b8152600060048201526024016103f2565b6001600160a01b03808516600090815260016020908152604080832093871683529290522082905580156105c157826001600160a01b0316846001600160a01b03167f8c5be1e5ebec7d5bd14f71427d1e84f3dd0314c0f7b2291e5b200ac8c7c3b9258460405161075991815260200190565b60405180910390a350505050565b6001600160a01b0383166107925780600260008282546107879190610a09565b909155506108049050565b6001600160a01b038316600090815260208190526040902054818110156107e55760405163391434e360e21b81526001600160a01b038516600482015260248101829052604481018390526064016103f2565b6001600160a01b03841660009081526020819052604090209082900390555b6001600160a01b0382166108205760028054829003905561083f565b6001600160a01b03821660009081526020819052604090208054820190555b816001600160a01b0316836001600160a01b03167fddf252ad1be2c89b69c2b068fc378daa952ba7f163c4a11628f55a4df523b3ef8360405161088491815260200190565b60405180910390a3505050565b600060208083528351808285015260005b818110156108be578581018301518582016040015282016108a2565b506000604082860101526040601f19601f8301168501019250505092915050565b80356001600160a01b03811681146108f657600080fd5b919050565b6000806040838503121561090e57600080fd5b610917836108df565b946020939093013593505050565b60008060006060848603121561093a57600080fd5b610943846108df565b9250610951602085016108df565b9150604084013590509250925092565b60006020828403121561097357600080fd5b5035919050565b60006020828403121561098c57600080fd5b610995826108df565b9392505050565b600080604083850312156109af57600080fd5b6109b8836108df565b91506109c6602084016108df565b90509250929050565b600181811c908216806109e357607f821691505b602082108103610a0357634e487b7160e01b600052602260045260246000fd5b50919050565b8082018082111561037257634e487b7160e01b600052601160045260246000fdfea2646970667358221220cdd7706d69f0168d714598bf2152275020aed062c0920933d2b6e452ca7a52b964736f6c63430008140033a2646970667358221220bfcff78722d544439b6a4eedc63e3a0bd232bd8b75595473f480445d0dacc3b664736f6c63430008140033",
  "linkReferences": {},
  "deployedLinkReferences": {}
}