{
  "_format": "hh-sol-artifact-1",
  "contractName": "UserRegistry",
  "sourceName": "contracts/UserRegistry.sol",
  "abi": [
    {
      "inputs": [],
      "stateMutability": "nonpayable",
      "type": "constructor"
    },
    {
      "inputs": [
        {
          "internalType": "address",
          "name": "owner",
          "type": "address"
        }
      ],
      "name": "OwnableInvalidOwner",
      "type": "error"
    },
    {
      "inputs": [
        {
          "internalType": "address",
          "name": "account",
          "type": "address"
        }
      ],
      "name": "OwnableUnauthorizedAccount",
      "type": "error"
    },
    {
      "anonymous": false,
      "inputs": [
        {
          "indexed": true,
          "internalType": "address",
          "name": "previousOwner",
          "type": "address"
        },
        {
          "indexed": true,
          "internalType": "address",
          "name": "newOwner",
          "type": "address"
        }
      ],
      "name": "OwnershipTransferred",
      "type": "event"
    },
    {
      "anonymous": false,
      "inputs": [
        {
          "indexed": true,
          "internalType": "address",
          "name": "tokenAddress",
          "type": "address"
        },
        {
          "indexed": false,
          "internalType": "string",
          "name": "name",
          "type": "string"
        },
        {
          "indexed": false,
          "internalType": "string",
          "name": "symbol",
          "type": "string"
        },
        {
          "indexed": false,
          "internalType": "uint256",
          "name": "initialSupply",
          "type": "uint256"
        },
        {
          "indexed": false,
          "internalType": "uint256",
          "name": "limitedSupply",
          "type": "uint256"
        }
      ],
      "name": "PropertyAdded",
      "type": "event"
    },
    {
      "inputs": [
        {
          "internalType": "string",
          "name": "name",
          "type": "string"
        },
        {
          "internalType": "string",
          "name": "symbol",
          "type": "string"
        },
        {
          "internalType": "uint256",
          "name": "initialSupply",
          "type": "uint256"
        },
        {
          "internalType": "uint256",
          "name": "limitedSupply",
          "type": "uint256"
        }
      ],
      "name": "AddProperty",
      "outputs": [],
      "stateMutability": "nonpayable",
      "type": "function"
    },
    {
      "inputs": [
        {
          "internalType": "uint256",
          "name": "id",
          "type": "uint256"
        }
      ],
      "name": "VerifyProperty",
      "outputs": [],
      "stateMutability": "nonpayable",
      "type": "function"
    },
    {
      "inputs": [
        {
          "internalType": "string",
          "name": "URI",
          "type": "string"
        }
      ],
      "name": "addUserDetails",
      "outputs": [],
      "stateMutability": "nonpayable",
      "type": "function"
    },
    {
      "inputs": [],
      "name": "owner",
      "outputs": [
        {
          "internalType": "address",
          "name": "",
          "type": "address"
        }
      ],
      "stateMutability": "view",
      "type": "function"
    },
    {
      "inputs": [],
      "name": "renounceOwnership",
      "outputs": [],
      "stateMutability": "nonpayable",
      "type": "function"
    },
    {
      "inputs": [
        {
          "internalType": "address",
          "name": "newOwner",
          "type": "address"
        }
      ],
      "name": "transferOwnership",
      "outputs": [],
      "stateMutability": "nonpayable",
      "type": "function"
    },
    {
      "inputs": [
        {
          "internalType": "address",
          "name": "user",
          "type": "address"
        }
      ],
      "name": "verifyUser",
      "outputs": [],
      "stateMutability": "nonpayable",
      "type": "function"
    }
  ],
  "bytecode": "0x608060405234801561001057600080fd5b50338061003757604051631e4fbdf760e01b81526000600482015260240160405180910390fd5b61004081610046565b50610096565b600080546001600160a01b038381166001600160a01b0319831681178455604051919092169283917f8be0079c531659141344cd1fd0a4f28419497f9722a3daafe3b4186f6b6457e09190a35050565b6118b6806100a56000396000f3fe60806040523480156200001157600080fd5b5060043610620000875760003560e01c806377feaef1116200006257806377feaef114620000c65780638da5cb5b14620000dd578063ced5a94714620000fc578063f2fde38b146200011357600080fd5b80634d813120146200008c5780636533f73f14620000a5578063715018a614620000bc575b600080fd5b620000a36200009d366004620005e3565b6200012a565b005b620000a3620000b636600462000661565b620001c5565b620000a362000399565b620000a3620000d7366004620006e6565b620003b1565b600054604080516001600160a01b039092168252519081900360200190f35b620000a36200010d3660046200072c565b620004b6565b620000a362000124366004620005e3565b62000512565b6200013462000556565b60023360009081526001602052604090205460ff1660038111156200015d576200015d62000746565b14620001a15760405162461bcd60e51b815260206004820152600e60248201526d021b0b713ba103b32b934b33c97160951b60448201526064015b60405180910390fd5b6001600160a01b03166000908152600160205260409020805460ff19166003179055565b808211156200023f576040805162461bcd60e51b81526020600482015260248101919091527f496e697469616c20737570706c79206d757374206265206c657373207468616e60448201527f206f7220657175616c20746f20746865206c696d6974656420737570706c792e606482015260840162000198565b60008686868686866040516200025590620005d5565b620002669695949392919062000785565b604051809103906000f08015801562000283573d6000803e3d6000fd5b5060405163f2fde38b60e01b81523360048201529091506001600160a01b0382169063f2fde38b90602401600060405180830381600087803b158015620002c957600080fd5b505af1158015620002de573d6000803e3d6000fd5b5050336000908152600160208181526040808420815180830183526001600160a01b0389811680835282860188815260029094018054978801815588529490962090519401805491511515600160a01b026001600160a81b0319909216949095169390931792909217909255519092507ff771672411519673b1be7d22f97e7cccb711553c0a754ef3e24d781d46783389915062000388908a908a908a908a908a908a9062000785565b60405180910390a250505050505050565b620003a362000556565b620003af600062000585565b565b60023360009081526001602052604090205460ff166003811115620003da57620003da62000746565b036200041b5760405162461bcd60e51b815260206004820152600f60248201526e105b1c9958591e48105c1c1b1a5959608a1b604482015260640162000198565b60033360009081526001602052604090205460ff16600381111562000444576200044462000746565b03620004865760405162461bcd60e51b815260206004820152601060248201526f105b1c9958591e4815995c9a599a595960821b604482015260640162000198565b336000908152600160208190526040909120805460ff1916600217815501620004b18284836200086a565b505050565b620004c062000556565b336000908152600160208190526040909120600201805483908110620004ea57620004ea62000938565b60009182526020909120018054911515600160a01b0260ff60a01b1990921691909117905550565b6200051c62000556565b6001600160a01b0381166200054857604051631e4fbdf760e01b81526000600482015260240162000198565b620005538162000585565b50565b6000546001600160a01b03163314620003af5760405163118cdaa760e01b815233600482015260240162000198565b600080546001600160a01b038381166001600160a01b0319831681178455604051919092169283917f8be0079c531659141344cd1fd0a4f28419497f9722a3daafe3b4186f6b6457e09190a35050565b610f32806200094f83390190565b600060208284031215620005f657600080fd5b81356001600160a01b03811681146200060e57600080fd5b9392505050565b60008083601f8401126200062857600080fd5b50813567ffffffffffffffff8111156200064157600080fd5b6020830191508360208285010111156200065a57600080fd5b9250929050565b600080600080600080608087890312156200067b57600080fd5b863567ffffffffffffffff808211156200069457600080fd5b620006a28a838b0162000615565b90985096506020890135915080821115620006bc57600080fd5b50620006cb89828a0162000615565b979a9699509760408101359660609091013595509350505050565b60008060208385031215620006fa57600080fd5b823567ffffffffffffffff8111156200071257600080fd5b620007208582860162000615565b90969095509350505050565b6000602082840312156200073f57600080fd5b5035919050565b634e487b7160e01b600052602160045260246000fd5b81835281816020850137506000828201602090810191909152601f909101601f19169091010190565b6080815260006200079b60808301888a6200075c565b8281036020840152620007b08187896200075c565b6040840195909552505060600152949350505050565b634e487b7160e01b600052604160045260246000fd5b600181811c90821680620007f157607f821691505b6020821081036200081257634e487b7160e01b600052602260045260246000fd5b50919050565b601f821115620004b157600081815260208120601f850160051c81016020861015620008415750805b601f850160051c820191505b8181101562000862578281556001016200084d565b505050505050565b67ffffffffffffffff831115620008855762000885620007c6565b6200089d83620008968354620007dc565b8362000818565b6000601f841160018114620008d45760008515620008bb5750838201355b600019600387901b1c1916600186901b17835562000931565b600083815260209020601f19861690835b82811015620009075786850135825560209485019460019092019101620008e5565b5086821015620009255760001960f88860031b161c19848701351681555b505060018560011b0183555b5050505050565b634e487b7160e01b600052603260045260246000fdfe60806040523480156200001157600080fd5b5060405162000f3238038062000f328339810160408190526200003491620002c5565b83836003620000448382620003ce565b506004620000538282620003ce565b5050600580546001600160a01b0319163390811790915560068490556007839055620000819150836200008b565b50505050620004c2565b6001600160a01b038216620000bb5760405163ec442f0560e01b8152600060048201526024015b60405180910390fd5b620000c960008383620000cd565b5050565b6001600160a01b038316620000fc578060026000828254620000f091906200049a565b90915550620001709050565b6001600160a01b03831660009081526020819052604090205481811015620001515760405163391434e360e21b81526001600160a01b03851660048201526024810182905260448101839052606401620000b2565b6001600160a01b03841660009081526020819052604090209082900390555b6001600160a01b0382166200018e57600280548290039055620001ad565b6001600160a01b03821660009081526020819052604090208054820190555b816001600160a01b0316836001600160a01b03167fddf252ad1be2c89b69c2b068fc378daa952ba7f163c4a11628f55a4df523b3ef83604051620001f391815260200190565b60405180910390a3505050565b634e487b7160e01b600052604160045260246000fd5b600082601f8301126200022857600080fd5b81516001600160401b038082111562000245576200024562000200565b604051601f8301601f19908116603f0116810190828211818310171562000270576200027062000200565b816040528381526020925086838588010111156200028d57600080fd5b600091505b83821015620002b1578582018301518183018401529082019062000292565b600093810190920192909252949350505050565b60008060008060808587031215620002dc57600080fd5b84516001600160401b0380821115620002f457600080fd5b620003028883890162000216565b955060208701519150808211156200031957600080fd5b50620003288782880162000216565b604087015160609097015195989097509350505050565b600181811c908216806200035457607f821691505b6020821081036200037557634e487b7160e01b600052602260045260246000fd5b50919050565b601f821115620003c957600081815260208120601f850160051c81016020861015620003a45750805b601f850160051c820191505b81811015620003c557828155600101620003b0565b5050505b505050565b81516001600160401b03811115620003ea57620003ea62000200565b6200040281620003fb84546200033f565b846200037b565b602080601f8311600181146200043a5760008415620004215750858301515b600019600386901b1c1916600185901b178555620003c5565b600085815260208120601f198616915b828110156200046b578886015182559484019460019091019084016200044a565b50858210156200048a5787850151600019600388901b60f8161c191681555b5050505050600190811b01905550565b80820180821115620004bc57634e487b7160e01b600052601160045260246000fd5b92915050565b610a6080620004d26000396000f3fe608060405234801561001057600080fd5b50600436106101215760003560e01c806370a08231116100ad5780639d1b464a116100715780639d1b464a14610257578063a9059cbb14610260578063bbb82d8914610273578063dd62ed3e14610280578063f2fde38b146102b957600080fd5b806370a08231146101d557806379cc6790146101fe5780638d6cc56d146102115780638da5cb5b1461022457806395d89b411461024f57600080fd5b8063313ce567116100f4578063313ce5671461018c5780633610724e1461019b578063378dc3dc146101b057806342966c68146101b9578063618e54dc146101cc57600080fd5b806306fdde0314610126578063095ea7b31461014457806318160ddd1461016757806323b872dd14610179575b600080fd5b61012e6102cc565b60405161013b9190610891565b60405180910390f35b6101576101523660046108fb565b61035e565b604051901515815260200161013b565b6002545b60405190815260200161013b565b610157610187366004610925565b610378565b6040516012815260200161013b565b6101ae6101a9366004610961565b61039c565b005b61016b60065481565b6101ae6101c7366004610961565b61046d565b61016b60075481565b61016b6101e336600461097a565b6001600160a01b031660009081526020819052604090205490565b6101ae61020c3660046108fb565b610477565b6101ae61021f366004610961565b600955565b600554610237906001600160a01b031681565b6040516001600160a01b03909116815260200161013b565b61012e610490565b61016b60095481565b61015761026e3660046108fb565b61049f565b6008546101579060ff1681565b61016b61028e36600461099c565b6001600160a01b03918216600090815260016020908152604080832093909416825291909152205490565b6101ae6102c736600461097a565b6104ad565b6060600380546102db906109cf565b80601f0160208091040260200160405190810160405280929190818152602001828054610307906109cf565b80156103545780601f1061032957610100808354040283529160200191610354565b820191906000526020600020905b81548152906001019060200180831161033757829003601f168201915b5050505050905090565b60003361036c818585610537565b60019150505b92915050565b600033610386858285610549565b6103918585856105c7565b506001949350505050565b6005546001600160a01b031633036103fb5760405162461bcd60e51b815260206004820152601860248201527f4f776e65722063616e6e6f742062757920746f6b656e732e000000000000000060448201526064015b60405180910390fd5b6007548161040860025490565b6104129190610a09565b11156104605760405162461bcd60e51b815260206004820152601760248201527f45786365656473206c696d6974656420737570706c792e00000000000000000060448201526064016103f2565b61046a3382610626565b50565b61046a338261065c565b610482823383610549565b61048c828261065c565b5050565b6060600480546102db906109cf565b60003361036c8185856105c7565b6005546001600160a01b031633146105155760405162461bcd60e51b815260206004820152602560248201527f4f6e6c7920746865206f776e65722063616e207472616e73666572206f776e65604482015264072736869760dc1b60648201526084016103f2565b600580546001600160a01b0319166001600160a01b0392909216919091179055565b6105448383836001610692565b505050565b6001600160a01b0383811660009081526001602090815260408083209386168352929052205460001981146105c157818110156105b257604051637dc7a0d960e11b81526001600160a01b038416600482015260248101829052604481018390526064016103f2565b6105c184848484036000610692565b50505050565b6001600160a01b0383166105f157604051634b637e8f60e11b8152600060048201526024016103f2565b6001600160a01b03821661061b5760405163ec442f0560e01b8152600060048201526024016103f2565b610544838383610767565b6001600160a01b0382166106505760405163ec442f0560e01b8152600060048201526024016103f2565b61048c60008383610767565b6001600160a01b03821661068657604051634b637e8f60e11b8152600060048201526024016103f2565b61048c82600083610767565b6001600160a01b0384166106bc5760405163e602df0560e01b8152600060048201526024016103f2565b6001600160a01b0383166106e657604051634a1406b160e11b8152600060048201526024016103f2565b6001600160a01b03808516600090815260016020908152604080832093871683529290522082905580156105c157826001600160a01b0316846001600160a01b03167f8c5be1e5ebec7d5bd14f71427d1e84f3dd0314c0f7b2291e5b200ac8c7c3b9258460405161075991815260200190565b60405180910390a350505050565b6001600160a01b0383166107925780600260008282546107879190610a09565b909155506108049050565b6001600160a01b038316600090815260208190526040902054818110156107e55760405163391434e360e21b81526001600160a01b038516600482015260248101829052604481018390526064016103f2565b6001600160a01b03841660009081526020819052604090209082900390555b6001600160a01b0382166108205760028054829003905561083f565b6001600160a01b03821660009081526020819052604090208054820190555b816001600160a01b0316836001600160a01b03167fddf252ad1be2c89b69c2b068fc378daa952ba7f163c4a11628f55a4df523b3ef8360405161088491815260200190565b60405180910390a3505050565b600060208083528351808285015260005b818110156108be578581018301518582016040015282016108a2565b506000604082860101526040601f19601f8301168501019250505092915050565b80356001600160a01b03811681146108f657600080fd5b919050565b6000806040838503121561090e57600080fd5b610917836108df565b946020939093013593505050565b60008060006060848603121561093a57600080fd5b610943846108df565b9250610951602085016108df565b9150604084013590509250925092565b60006020828403121561097357600080fd5b5035919050565b60006020828403121561098c57600080fd5b610995826108df565b9392505050565b600080604083850312156109af57600080fd5b6109b8836108df565b91506109c6602084016108df565b90509250929050565b600181811c908216806109e357607f821691505b602082108103610a0357634e487b7160e01b600052602260045260246000fd5b50919050565b8082018082111561037257634e487b7160e01b600052601160045260246000fdfea2646970667358221220cdd7706d69f0168d714598bf2152275020aed062c0920933d2b6e452ca7a52b964736f6c63430008140033a2646970667358221220f8231794f4e53fb8ed715973ce3a02695d8d0d9c5d24997aac3de0f123f35a0764736f6c63430008140033",
  "linkReferences": {},
  "deployedLinkReferences": {}
}